:020000040800F2
:1000000000180020490D0008E90B0008EF0B00085C
:10001000F50B0008FB0B0008010C000800000000B5
:10002000000000000000000000000000070C0008B5
:10003000130C0008000000001F0C00082B0C000827
:10004000910D0008910D0008910D0008910D000818
:10005000910D0008910D0008910D0008910D000808
:10006000910D0008910D0008910D0008910D0008F8
:10007000910D0008910D0008910D0008910D0008E8
:10008000910D0008910D0008910D0008910D0008D8
:10009000910D0008910D0008910D0008910D0008C8
:1000A000910D0008910D0008910D0008910D0008B8
:1000B000910D0008910D000800000000910D00084E
:1000C000910D00080000000000000000910D0008E4
:1000D00000000000910D0008910D000800000000D4
:1000E000910D0008910D0008910D0008000000001E
:1000F0000000000000000000000000000000000000
:0C01000000000000000000005FF808F1A3
:10010C0010B5054C237833B9044B13B10448AFF345
:10011C0000800123237010BD680000200000000047
:10012C009C38000808B5034B1BB103490348AFF3D7
:10013C00008008BD000000006C0000209C38000806
:10014C0080B483B000AF78604FF06043D3F8803E4A
:10015C0003F00103002B13D04FF06043D3F8003EA3
:10016C0003F00103002B0BD000E000BF4FF0604305
:10017C001B68002BF9D04FF060437A68D2B21A702A
:10018C007B6818460C37BD4680BC704780B586B07E
:10019C0000AFF860B9607A60FB68012B07D1FB7C7B
:1001AC00002B01D17B681AE04FF0FF3317E0FB689E
:1001BC00022B12D100237B6109E07B69BA681344DE
:1001CC001B781846FFF7BCFF7B6901337B617A69AA
:1001DC007B689A42F1DB7B6801E04FF0FF331846F5
:1001EC001837BD4680BD000080B582B000AF00F06E
:1001FC00CBFD00F083F800F077FA00F0DBF800F0AC
:10020C0007F900F07FF900F0F7F900F021FA00F09F
:10021C0049FA0021344802F005F840F2DC5000F0B5
:10022C0015FE01224FF40041304801F093F80020F4
:10023C0000F00CFE37237B6001233B600223052278
:10024C0001212B4802F034FF2A4802F093FF4FF4AF
:10025C007A7000F0FBFD4FF47A7000F0F7FD4FF46C
:10026C007A7000F0F3FD4FF47A7000F0EFFD4FF46C
:10027C007A7000F0EBFD7A683B6813447B607B6816
:10028C00E62B02D16FF003033B607B68372B01D167
:10029C0004233B6001224FF40051174801F05AF837
:1002AC0001224FF40041144801F054F801224FF49C
:1002BC000041114801F04EF84FF47A7000F0C6FD81
:1002CC0000224FF400510C4801F044F800224FF486
:1002DC000041094801F03EF800224FF40041064865
:1002EC0001F038F8AAE700BFD80000200008014050
:1002FC00B4380008BC3800080010014080B594B038
:10030C0000AF07F1280328220021184603F012F849
:10031C0007F1140300221A605A609A60DA601A61BD
:10032C003B1D00221A605A609A60DA600123BB629E
:10033C004FF48033FB6200233B630123BB63022336
:10034C007B644FF48033BB644FF48013FB6407F180
:10035C002803184601F050FA0346002B01D000F098
:10036C004FFA0F237B610223BB610023FB614FF427
:10037C0080633B6200237B6207F114030121184662
:10038C0001F0BCFC0346002B01D000F039FA10231D
:10039C007B604FF480033B613B1D184601F03CFE33
:1003AC000346002B01D000F02BFA00BF5037BD469E
:1003BC0080BD000080B500AF124B134A1A60114B80
:1003CC00124A5A600F4B00229A600E4B0022DA60E0
:1003DC000C4B4FF480421A610A4B00225A61094BB4
:1003EC0000229A61074B0022DA61064B00221A6246
:1003FC00044800F0C7FF0346002B01D000F000FAC0
:10040C0000BF80BD8400002000540040A086010085
:10041C0080B58AB000AF07F1200300221A605A6041
:10042C003B1D00221A605A609A60DA601A615A61A8
:10043C009A61334B4FF080421A60314B4FF4F0729B
:10044C005A602F4B00229A602D4B40F2CF72DA602B
:10045C002B4B00221A612A4B00229A61284801F08A
:10046C0091FE0346002B01D000F0CAF900233B6239
:10047C0000237B6207F120031946214802F040FA61
:10048C000346002B01D000F0BBF960237B600023F6
:10049C00BB600023FB6000237B613B1D00221946DF
:1004AC00174801F05BFF0346002B01D000F0A8F9C0
:1004BC003B1D04221946124801F050FF0346002B45
:1004CC0001D000F09DF93B1D082219460C4801F0A3
:1004DC0045FF0346002B01D000F092F93B1D0C2286
:1004EC001946074801F03AFF0346002B01D000F0F3
:1004FC0087F9034800F02CFA00BF2837BD4680BDB1
:10050C00D800002080B58AB000AF07F1200300228C
:10051C001A605A603B1D00221A605A609A60DA60B9
:10052C001A615A619A61324B324A1A60304B00227E
:10053C005A602F4B00229A602D4B4FF6FF72DA60F7
:10054C002B4B00221A612A4B00229A61284801F099
:10055C0019FE0346002B01D000F052F900233B6238
:10056C0000237B6207F120031946214802F0C8F9E9
:10057C000346002B01D000F043F960237B6000237D
:10058C00BB600023FB6000237B613B1D00221946EE
:10059C00174801F0E3FE0346002B01D000F030F9C0
:1005AC003B1D04221946124801F0D8FE0346002BCD
:1005BC0001D000F025F93B1D082219460C4801F02A
:1005CC00CDFE0346002B01D000F01AF93B1D0C2286
:1005DC001946074801F0C2FE0346002B01D000F07B
:1005EC000FF9034800F0B4F900BF2837BD4680BDB1
:1005FC00200100200004004080B500AF124B134ACC
:10060C001A60114B4FF4E1325A600F4B00229A6082
:10061C000D4B0022DA600C4B00221A610A4B0C22A3
:10062C005A61094B00229A61074B0022DA61064B92
:10063C0000221A62044802F099FA0346002B01D0FA
:10064C0000F0DEF800BF80BD6801002000380140DA
:10065C0080B500AF114B124A1A60104B4FF4E132C7
:10066C005A600E4B00229A600C4B0022DA600B4B46
:10067C0000221A61094B0C225A61084B00229A6124
:10068C00064B0022DA61054802F092F90346002B72
:10069C0001D000F0B5F800BF80BD00BFAC01002058
:1006AC000044004080B500AF0D4B0E4A1A600C4B55
:1006BC0008221A710A4B02229A71094B00229A7273
:1006CC00074B0022DA72064B00221A73044800F022
:1006DC009DFF0346002B01D000F092F800BF80BDB7
:1006EC00F4010020005C004080B588B000AF07F139
:1006FC00100300221A605A609A60DA603B4B9B69C7
:10070C003A4A43F010039361384B9B6903F0100392
:10071C00FB60FB68354B9B69344A43F020039361C3
:10072C00324B9B6903F02003BB60BB682F4B9B696A
:10073C002E4A43F0040393612C4B9B6903F0040392
:10074C007B607B68294B9B69284A43F008039361C3
:10075C00264B9B6903F008033B603B6800224FF477
:10076C006041234800F0F6FD00224FF4004121487F
:10077C0000F0F0FD4FF460433B6101237B610023EB
:10078C00BB610223FB6107F110031946184800F006
:10079C0065FC48F204233B6100237B610023BB61B1
:1007AC0007F110031946144800F058FC4FF4445359
:1007BC003B61124B7B610023BB6107F110031946AF
:1007CC000D4800F04BFC4FF400433B6101237B616F
:1007DC000023BB610223FB6107F110031946054896
:1007EC0000F03CFC00BF2037BD4680BD001002402D
:1007FC000010014000080140000C014000001110E5
:10080C0080B400AF72B600BFFEE7000080B485B0C4
:10081C0000AF154B9B69144A43F001039361124BD3
:10082C009B6903F00103BB60BB680F4BDB690E4A8D
:10083C0043F08053D3610C4BDB6903F080537B6036
:10084C007B680A4B5B68FB60FB6823F0E063FB6032
:10085C00FB6843F00073FB60044AFB68536000BF05
:10086C001437BD4680BC70470010024000000140A8
:10087C0080B588B000AF786007F1100300221A60D1
:10088C005A609A60DA607B681B68164A934225D1DD
:10089C00154B9B69144A43F008039361124B9B69F7
:1008AC0003F00803FB60FB68C0233B6112237B61F0
:1008BC000023BB610323FB6107F1100319460B48AE
:1008CC0000F0CCFB084BDB69074A43F40013D361FF
:1008DC00054BDB6903F40013BB60BB6800BF20371A
:1008EC00BD4680BD0054004000100240000C014089
:1008FC0080B485B000AF78607B681B68B3F1804F23
:10090C000CD1114BDB69104A43F00103D3610E4B40
:10091C00DB6903F00103FB60FB6810E07B681B687C
:10092C000A4A93420BD1084BDB69074A43F0020396
:10093C00D361054BDB6903F00203BB60BB6800BFEE
:10094C001437BD4680BC70470010024000040040C4
:10095C0080B58CB000AF786007F1180300221A60E4
:10096C005A609A60DA607B681B68B3F1804F43D1A0
:10097C003B4B9B693A4A43F004039361384B9B69A8
:10098C0003F004037B617B69354B9B69344A43F06C
:10099C0008039361324B9B6903F008033B613B698D
:1009AC000323BB610223FB6102237B6207F1180363
:1009BC0019462C4800F052FB4FF44063BB610223F4
:1009CC00FB6102237B6207F118031946264800F0ED
:1009DC0045FB264B5B68BB62BB6A23F44073BB626E
:1009EC00BB6A43F0E063BB62BB6A43F40073BB6257
:1009FC001E4ABB6A53602EE07B681B681C4A9342FC
:100A0C0029D1174B9B69164A43F008039361144B89
:100A1C009B6903F00803FB60FB683323BB61022373
:100A2C00FB6102237B6207F1180319460E4800F0A4
:100A3C0015FB0E4B5B68FB62FB6A23F44063FB62A5
:100A4C00FB6A43F0E063FB62FB6A43F40063FB6206
:100A5C00064AFB6A536000BF3037BD4680BD00BFFD
:100A6C000010024000080140000C01400000014051
:100A7C000004004080B588B000AF786007F1100327
:100A8C0000221A605A609A60DA607B681B681C4A04
:100A9C00934231D11B4B9B691A4A43F480439361B7
:100AAC00184B9B6903F48043FB60FB68154B9B69F7
:100ABC00144A43F004039361124B9B6903F0040343
:100ACC00BB60BB684FF440733B6102237B61032323
:100ADC00FB6107F1100319460B4800F0BFFA4FF405
:100AEC0080633B6100237B610023BB6107F1100332
:100AFC001946054800F0B2FA00BF2037BD4680BD4C
:100B0C0000380140001002400008014080B588B058
:100B1C0000AF786007F1100300221A605A609A60E7
:100B2C00DA607B681B681B4A93422FD11A4BDB6936
:100B3C00194A43F40033D361174BDB6903F40033D8
:100B4C00FB60FB68144B9B69134A43F004039361ED
:100B5C00114B9B6903F00403BB60BB6804233B612E
:100B6C0002237B610323FB6107F1100319460B4839
:100B7C0000F074FA08233B6100237B610023BB6106
:100B8C0007F110031946054800F068FA00BF20373A
:100B9C00BD4680BD004400400010024000080140EA
:100BAC0080B485B000AF78607B681B68094A9342BB
:100BBC000BD1094BDB69084A43F40003D361064BA4
:100BCC00DB6903F40003FB60FB6800BF1437BD4610
:100BDC0080BC7047005C00400010024080B400AF45
:100BEC00FEE780B400AFFEE780B400AFFEE780B450
:100BFC0000AFFEE780B400AFFEE780B400AF00BFEB
:100C0C00BD4680BC704780B400AF00BFBD4680BC01
:100C1C00704780B400AF00BFBD4680BC704780B544
:100C2C0000AF00F0F7F800BF80BD80B586B000AF14
:100C3C00F860B9607A6000237B610AE0AFF3008052
:100C4C000146BB685A1CBA60CAB21A707B69013380
:100C5C007B617A697B689A42F0DB7B6818461837AF
:100C6C00BD4680BD80B483B000AF78604FF0FF33D9
:100C7C0018460C37BD4680BC704780B483B000AFBB
:100C8C00786039603B684FF400525A600023184674
:100C9C000C37BD4680BC704780B483B000AF786021
:100CAC00012318460C37BD4680BC704780B485B014
:100CBC0000AFF860B9607A60002318461437BD465F
:100CCC0080BC704780B586B000AF7860144A154B75
:100CDC00D31A7B617B693B61134B1B68002B02D1E0
:100CEC00114B124A1A60104B1A687B6813443A690C
:100CFC009A4207D202F06CFB03460C221A604FF0AA
:100D0C00FF3309E0084B1B68FB60074B1A687B68D4
:100D1C001344054A1360FB6818461837BD4680BD5E
:100D2C000018002000040000CC0400202006002045
:100D3C0080B400AF00BFBD4680BC7047FFF7F8FF22
:100D4C000B480C490C4A002302E0D458C45004331D
:100D5C00C4188C42F9D3094A094C002301E01360F2
:100D6C000432A242FBD302F039FBFFF73DFA704785
:100D7C000000002068000020F838000868000020FF
:100D8C0020060020FEE7000080B500AF084B1B6872
:100D9C00074A43F010031360032000F02BF90F20D7
:100DAC0000F008F8FFF732FD0023184680BD00BFA5
:100DBC000020024080B582B000AF7860124B1A68F8
:100DCC00124B1B7819464FF47A73B3FBF1F3B2FB59
:100DDC00F3F3184600F035F90346002B01D001233C
:100DEC000EE07B680F2B0AD8002279684FF0FF3099
:100DFC0000F00BF9064A7B681360002300E0012326
:100E0C0018460837BD4680BD0000002008000020B1
:100E1C000400002080B400AF054B1B781A46054B2C
:100E2C001B681344034A136000BFBD4680BC704767
:100E3C0008000020D004002080B400AF024B1B68D7
:100E4C001846BD4680BC7047D004002080B584B0E5
:100E5C0000AF7860FFF7F0FFB8607B68FB60FB6861
:100E6C00B3F1FF3F05D00A4B1B781A46FB681344BD
:100E7C00FB6000BFFFF7E0FF0246BB68D31AFA68BD
:100E8C009A42F7D800BF00BF1037BD4680BD00BFE7
:100E9C000800002080B485B000AF78607B6803F058
:100EAC000703FB600C4BDB68BB60BA684FF6FF03B3
:100EBC001340BB60FB681A02BB68134343F0BF636B
:100ECC0043F40033BB60044ABB68D36000BF1437E3
:100EDC00BD4680BC704700BF00ED00E080B400AFA1
:100EEC00044BDB681B0A03F007031846BD4680BCA5
:100EFC00704700BF00ED00E080B483B000AF034644
:100F0C003960FB7197F90730002B0ADB3B68DAB2CA
:100F1C000C4997F907301201D2B20B4483F8002325
:100F2C000AE03B68DAB20849FB7903F00F03043B93
:100F3C001201D2B20B441A7600BF0C37BD4680BCEE
:100F4C00704700BF00E100E000ED00E080B489B024
:100F5C0000AFF860B9607A60FB6803F00703FB61CF
:100F6C00FB69C3F10703042B28BF0423BB61FB6996
:100F7C000433062B02D9FB69033B00E000237B61A1
:100F8C004FF0FF32BB6902FA03F3DA43BB681A4035
:100F9C007B699A404FF0FF317B6901FA03F3D94327
:100FAC007B680B40134318462437BD4680BC704702
:100FBC0080B582B000AF78607B68013BB3F1807F75
:100FCC0001D301230FE00A4A7B68013B53600F21D8
:100FDC004FF0FF30FFF790FF054B00229A60044B57
:100FEC0007221A60002318460837BD4680BD00BF93
:100FFC0010E000E080B582B000AF78607868FFF751
:10100C0049FF00BF0837BD4680BD80B586B000AF34
:10101C000346B9607A60FB7300237B61FFF75EFFC8
:10102C0078617A68B9687869FFF790FF024697F99A
:10103C000F3011461846FFF75FFF00BF1837BD464B
:10104C0080BD80B582B000AF78607868FFF7B0FFE4
:10105C00034618460837BD4680BD000080B48BB0EF
:10106C0000AF7860396000237B6200233B6261E152
:10107C0001227B6A02FA03F3FB613B681B68FA6985
:10108C001340BB61BA69FB699A4240F050813B68DE
:10109C005B68974A93425ED0954A934275D8954ABD
:1010AC00934258D0934A93426FD8934A934252D06A
:1010BC00914A934269D8914A93424CD08F4A9342B9
:1010CC0063D88F4A934246D08D4A93425DD8122BF7
:1010DC002AD8122B59D801A252F823F06311000818
:1010EC003D1100084F1100089111000897110008DC
:1010FC009711000897110008971100089711000824
:10110C009711000897110008971100089711000813
:10111C009711000897110008971100089711000803
:10112C004511000859110008764A934213D02CE05F
:10113C003B68DB683B6229E03B68DB6804333B625D
:10114C0024E03B68DB6808333B621FE03B68DB68EC
:10115C000C333B621AE03B689B68002B02D10423E2
:10116C003B6213E03B689B68012B05D108233B6273
:10117C007B68FA691A6109E008233B627B68FA69AB
:10118C005A6103E000233B6200E000BFBB69FF2B08
:10119C0001D87B6801E07B6804337B61BB69FF2B62
:1011AC0002D87B6A9B0002E07B6A083B9B003B6198
:1011BC007B691A680F213B6901FA03F3DB431A4080
:1011CC00396A3B6901FA03F31A437B691A603B687D
:1011DC005B6803F08053002B00F0A9804A4B9B699D
:1011EC00494A43F001039361474B9B6903F00103A8
:1011FC00BB60BB68454A7B6A9B08023352F82330BC
:10120C00FB607B6A03F003039B000F2202FA03F3DB
:10121C00DB43FA681340FB607B683D4A93420DD078
:10122C007B683C4A934207D07B683B4A934201D18E
:10123C00022304E0032302E0012300E000237A6A86
:10124C0002F0030292009340FA681343FB602F49AB
:10125C007B6A9B080233FA6841F823203B685B6881
:10126C0003F48013002B06D02C4B9A682B49BB69D6
:10127C0013438B6006E0294B9A68BB69DB43274913
:10128C0013408B603B685B6803F40013002B06D0A3
:10129C00224BDA682149BB691343CB6006E01F4B34
:1012AC00DA68BB69DB431D491340CB603B685B6864
:1012BC0003F40033002B06D0184B5A681749BB694E
:1012CC0013434B6006E0154B5A68BB69DB4313496B
:1012DC0013404B603B685B6803F48033002B1FD0DA
:1012EC000E4B1A680D49BB6913430B601FE000BF1E
:1012FC0000003210000031100000221000002110FC
:10130C0000001210000011100010024000000140FB
:10131C0000080140000C0140001001400004014095
:10132C000B4B1A68BB69DB43094913400B607B6AA2
:10133C0001337B623B681A687B6A22FA03F3002B49
:10134C007FF496AE00BF00BF2C37BD4680BC704703
:10135C000004014080B483B000AF78600B467B8002
:10136C0013467B707B78002B03D07A887B681A61DC
:10137C0003E07B881A047B681A6100BF0C37BD46FA
:10138C0080BC704780B584B000AF78607B68002B60
:10139C0001D101232BE17B6893F83D30DBB2002BAC
:1013AC0006D17B68002283F83C207868FFF760FA4E
:1013BC007B68242283F83D207B681B681A687B6855
:1013CC001B6822F001021A607B681B681A687B6834
:1013DC001B6842F400421A607B681B681A687B68C1
:1013EC001B6822F400421A6000F0D0FDF8607B68A4
:1013FC005B68814A934207D8FB68804A934294BF4A
:10140C0001230023DBB206E0FB687D4A934294BFC4
:10141C0001230023DBB2002B01D00123E7E0FB68A2
:10142C00784AA2FB03239B0CBB607B681B685B6840
:10143C0023F03F017B681B68BA680A435A607B68DB
:10144C001B681B6A23F03F017B685B686A4A934206
:10145C0002D8BB68013309E0BB684FF4967202FBFB
:10146C0003F3694AA2FB03239B0901337A681268D0
:10147C000B4313627B681B68DB6923F44F4222F039
:10148C00FF027B685B685C498B4219D8FB68591E6C
:10149C007B685B685B00B1FBF3F3591C40F6FC7393
:1014AC000B40002B0AD0FB68591E7B685B685B0005
:1014BC00B1FBF3F30133C3F30B0351E004234FE00F
:1014CC007B689B68002B11D1FB68581E7B685968A0
:1014DC000B465B000B44B0FBF3F30133C3F30B037C
:1014EC00002B0CBF01230023DBB212E0FB68581E5B
:1014FC007B6859680B469B000B4499000B44B0FB6E
:10150C00F3F30133C3F30B03002B0CBF01230023B4
:10151C00DBB2002B01D0012322E07B689B68002BFF
:10152C000ED1FB68581E7B6859680B465B000B4458
:10153C00B0FBF3F30133C3F30B0343F400430FE0AD
:10154C00FB68581E7B6859680B469B000B4499003E
:10155C000B44B0FBF3F30133C3F30B0343F44043ED
:10156C00796809681343CB617B681B681B6823F09F
:10157C00C0017B68DA697B681B6A1A437B681B684D
:10158C000A431A607B681B689B6823F4034323F0AF
:10159C00FF037A6811697A68D26811437A68126815
:1015AC000B4393607B681B68DB6823F0FF017B684F
:1015BC005A697B689B691A437B681B680A43DA602B
:1015CC007B681B681A687B681B6842F001021A6012
:1015DC007B6800221A647B68202283F83D207B689C
:1015EC0000221A637B68002283F83E2000231846F1
:1015FC001037BD4680BD00BFA08601007F841E0051
:10160C00FF083D0083DE1B43D34D621080B584B0D0
:10161C0000AF78607B68002B01D10123E8E07B6888
:10162C0093F89132DBB2002B06D17B68002283F851
:10163C0090227868FFF7B4FA7B68032283F8912232
:10164C007B6800225A717B681B68184601F0D5FB39
:10165C007B6818687B6804330ECB01F0C1FB034632
:10166C00002B05D07B68022283F891220123BFE076
:10167C007B681B680021184601F0D9FB0346002B40
:10168C0005D07B68022283F891220123B0E000236D
:10169C00FB733EE0FA7B796813469B001344DB0036
:1016AC000B44113301221A70FA7B796813469B00A4
:1016BC001344DB000B441033FA7B1A70FA7B796805
:1016CC0013469B001344DB000B44133300221A70A7
:1016DC00FA7B796813469B001344DB000B442033E0
:1016EC0000221A60FA7B796813469B001344DB00D6
:1016FC000B44243300221A60FB7B79685A1C134676
:10170C009B001344DB000B4400221A60FB7B01336B
:10171C00FB737B681B79FA7B9A42BBD30023FB7368
:10172C0044E0FA7B796813469B001344DB000B44BE
:10173C0003F2511300221A70FA7B796813469B004E
:10174C001344DB000B4403F5A873FA7B1A70FA7B85
:10175C00796813469B001344DB000B4403F25313CC
:10176C0000221A70FA7B796813469B001344DB0045
:10177C000B4403F5B07300221A60FA7B79681346A8
:10178C009B001344DB000B4403F5B27300221A6078
:10179C00FA7B796813469B001344DB000B4403F57A
:1017AC00B47300221A60FB7B0133FB737B681B79DB
:1017BC00FA7B9A42B5D37B6818687B6804330ECBEE
:1017CC0001F041FB0346002B05D07B68022283F815
:1017DC00912201230CE07B6800225A737B68012262
:1017EC0083F891227B681B68184601F049FB0023A3
:1017FC0018461037BD4680BD80B586B000AF786006
:10180C007B68002B01D1012372E27B681B6803F01B
:10181C000103002B00F08780924B5B6803F00C03F4
:10182C00042B0CD08F4B5B6803F00C03082B12D1EC
:10183C008C4B5B6803F48033B3F5803F0BD1894B41
:10184C001B6803F40033002B6CD07B685B68002BA7
:10185C0068D101234CE27B685B68B3F5803F06D10D
:10186C00804B1B687F4A43F4803313602EE07B6807
:10187C005B68002B0CD17B4B1B687A4A23F48033BA
:10188C001360784B1B68774A23F4802313601DE0A8
:10189C007B685B68B3F5A02F0CD1724B1B68714A47
:1018AC0043F4802313606F4B1B686E4A43F4803300
:1018BC0013600BE06B4B1B686A4A23F48033136094
:1018CC00684B1B68674A23F4802313607B685B6852
:1018DC00002B13D0FFF7B0FA386108E0FFF7ACFA31
:1018EC0002463B69D31A642B01D9032300E25D4BFA
:1018FC001B6803F40033002BF0D014E0FFF79CFAC4
:10190C00386108E0FFF798FA02463B69D31A642B5A
:10191C0001D90323ECE1534B1B6803F40033002B78
:10192C00F0D100E000BF7B681B6803F00203002BC2
:10193C0063D04C4B5B6803F00C03002B0BD0494B72
:10194C005B6803F00C03082B1CD1464B5B6803F45B
:10195C008033002B16D1434B1B6803F00203002B82
:10196C0005D07B681B69012B01D00123C0E13D4BE5
:10197C001B6823F0F8027B685B69DB003949134371
:10198C000B603AE07B681B69002B20D0364B0122A0
:10199C001A60FFF751FA386108E0FFF74DFA02467A
:1019AC003B69D31A022B01D90323A1E12D4B1B68F0
:1019BC0003F00203002BF0D02A4B1B6823F0F80233
:1019CC007B685B69DB00274913430B6015E0264BF2
:1019DC0000221A60FFF730FA386108E0FFF72CFAA2
:1019EC0002463B69D31A022B01D9032380E11D4B1C
:1019FC001B6803F00203002BF0D17B681B6803F01B
:101A0C000803002B3AD07B689B69002B19D0174B2D
:101A1C0001221A60FFF710FA386108E0FFF70CFAA0
:101A2C0002463B69D31A022B01D9032360E10D4B0B
:101A3C005B6A03F00203002BF0D0012000F0CEFA19
:101A4C001CE00A4B00221A60FFF7F6F938610FE030
:101A5C00FFF7F2F902463B69D31A022B08D903238C
:101A6C0046E100BF001002400000424280044242A6
:101A7C00924B5B6A03F00203002BE9D17B681B6875
:101A8C0003F00403002B00F0A6800023FB758B4BA6
:101A9C00DB6903F08053002B0DD1884BDB69874A3F
:101AAC0043F08053D361854BDB6903F08053BB60FB
:101ABC00BB680123FB75824B1B6803F48073002BFE
:101ACC0018D17F4B1B687E4A43F480731360FFF779
:101ADC00B3F9386108E0FFF7AFF902463B69D31A56
:101AEC00642B01D9032303E1754B1B6803F480734A
:101AFC00002BF0D07B68DB68012B06D16F4B1B6A87
:101B0C006E4A43F0010313622DE07B68DB68002B07
:101B1C000CD16A4B1B6A694A23F001031362674BB1
:101B2C001B6A664A23F0040313621CE07B68DB68C3
:101B3C00052B0CD1614B1B6A604A43F00403136202
:101B4C005E4B1B6A5D4A43F0010313620BE05B4B77
:101B5C001B6A5A4A23F001031362584B1B6A574AFB
:101B6C0023F0040313627B68DB68002B15D0FFF7AE
:101B7C0063F938610AE0FFF75FF902463B69D31A53
:101B8C0041F28832934201D90323B1E04B4B1B6ADB
:101B9C0003F00203002BEED014E0FFF74DF938618F
:101BAC000AE0FFF749F902463B69D31A41F2883241
:101BBC00934201D903239BE0404B1B6A03F00203C1
:101BCC00002BEED1FB7D012B05D13C4BDB693B4A55
:101BDC0023F08053D3617B68DB69002B00F0878096
:101BEC00364B5B6803F00C03082B61D07B68DB6918
:101BFC00022B46D1334B00221A60FFF71DF93861D6
:101C0C0008E0FFF719F902463B69D31A022B01D9F8
:101C1C0003236DE0294B1B6803F00073002BF0D1FC
:101C2C007B681B6AB3F5803F08D1244B5B6823F4B7
:101C3C0000327B689B68214913434B601F4B5B68E8
:101C4C0023F474127B68196A7B685B6A0B431B492B
:101C5C0013434B601B4B01221A60FFF7EDF8386100
:101C6C0008E0FFF7E9F802463B69D31A022B01D9C9
:101C7C0003233DE0114B1B6803F00073002BF0D0E5
:101C8C0035E0104B00221A60FFF7D6F8386108E0F7
:101C9C00FFF7D2F802463B69D31A022B01D9032372
:101CAC0026E0064B1B6803F00073002BF0D11EE0FE
:101CBC007B68DB69012B07D1012319E0001002407E
:101CCC0000700040600042420B4B5B68FB60FB689D
:101CDC0003F480327B681B6A9A4206D1FB6803F4DA
:101CEC0070127B685B6A9A4201D0012300E00023EA
:101CFC0018461837BD4680BD0010024080B584B030
:101D0C0000AF786039607B68002B01D10123D0E0F3
:101D1C006A4B1B6803F007033A689A4210D9674B69
:101D2C001B6823F0070265493B6813430B60634B48
:101D3C001B6803F007033A689A4201D00123B8E00C
:101D4C007B681B6803F00203002B20D07B681B68A8
:101D5C0003F00403002B05D0594B5B68584A43F43D
:101D6C00E06353607B681B6803F00803002B05D00D
:101D7C00534B5B68524A43F460535360504B5B685F
:101D8C0023F0F0027B689B684D4913434B607B68E2
:101D9C001B6803F00103002B40D07B685B68012BB0
:101DAC0007D1474B1B6803F40033002B15D10123DB
:101DBC007FE07B685B68022B07D1414B1B6803F00B
:101DCC000073002B09D1012373E03D4B1B6803F01A
:101DDC000203002B01D101236BE0394B5B6823F02C
:101DEC0003027B685B68364913434B60FFF724F8AA
:101DFC00F8600AE0FFF720F80246FB68D31A41F2BC
:101E0C008832934201D9032353E02D4B5B6803F0D6
:101E1C000C027B685B689B009A42EBD1274B1B68DA
:101E2C0003F007033A689A4210D2244B1B6823F044
:101E3C00070222493B6813430B60204B1B6803F0DD
:101E4C0007033A689A4201D0012332E07B681B6891
:101E5C0003F00403002B08D0194B5B6823F4E062F9
:101E6C007B68DB68164913434B607B681B6803F087
:101E7C000803002B09D0124B5B6823F460527B687B
:101E8C001B69DB000E4913434B6000F021F802463E
:101E9C000B4B5B681B0903F00F030A49CB5C22FA5E
:101EAC0003F3094A1360094B1B681846FEF782FFBF
:101EBC00002318461037BD4680BD00BF00200240ED
:101ECC0000100240C438000800000020040000206C
:101EDC0080B487B000AF0023FB600023BB600023FD
:101EEC007B6100237B6000233B611E4B5B68FB60C6
:101EFC00FB6803F00C03042B02D0082B03D027E063
:101F0C00194B3B6127E0FB689B0C03F00F03174A4E
:101F1C00D35C7B60FB6803F48033002B10D0114B37
:101F2C005B685B0C03F00103114AD35CBB607B68FC
:101F3C000D4A03FB02F2BB68B2FBF3F37B6104E0D6
:101F4C007B680C4A02FB03F37B617B693B6102E01B
:101F5C00054B3B6100BF3B6918461C37BD4680BC36
:101F6C00704700BF0010024000127A00DC380008F5
:101F7C00EC38000800093D0080B400AF024B1B6830
:101F8C001846BD4680BC70470000002080B500AFED
:101F9C00FFF7F2FF0246054B5B681B0A03F00703D1
:101FAC000349CB5C22FA03F3184680BD00100240B3
:101FBC00D438000880B500AFFFF7DEFF0246054BB2
:101FCC005B68DB0A03F007030349CB5C22FA03F3DB
:101FDC00184680BD00100240D438000880B485B08B
:101FEC0000AF78600A4B1B680A4AA2FB03235B0A0A
:101FFC007A6802FB03F3FB6000BFFB685A1EFA60B1
:10200C00002BF9D100BF00BF1437BD4680BC704710
:10201C0000000020D34D621080B586B000AF786010
:10202C0000233B610023FB607B681B6803F001030A
:10203C00002B7DD00023FB754F4BDB6903F08053E5
:10204C00002B0DD14C4BDB694B4A43F08053D361D1
:10205C00494BDB6903F08053BB60BB680123FB7504
:10206C00464B1B6803F48073002B18D1434B1B6841
:10207C00424A43F480731360FEF7DEFE386108E0D9
:10208C00FEF7DAFE02463B69D31A642B01D903230F
:10209C006DE03A4B1B6803F48073002BF0D0364B89
:1020AC001B6A03F44073FB60FB68002B2ED07B682B
:1020BC005B6803F44073FA689A4227D02E4B1B6A74
:1020CC0023F44073FB602E4B01221A602C4B002230
:1020DC001A60294AFB681362FB6803F00103002BAA
:1020EC0014D0FEF7A9FE38610AE0FEF7A5FE024601
:1020FC003B69D31A41F28832934201D9032336E06B
:10210C001D4B1B6A03F00203002BEED01A4B1B6A0B
:10211C0023F440727B685B68174913430B62FB7DA9
:10212C00012B05D1144BDB69134A23F08053D36187
:10213C007B681B6803F00203002B08D00E4B5B6816
:10214C0023F440427B689B680B4913434B607B68CC
:10215C001B6803F01003002B08D0074B5B6823F4BB
:10216C0080027B68DB68044913434B6000231846EC
:10217C001837BD4680BD00BF001002400070004003
:10218C004004424280B582B000AF78607B68002B7F
:10219C0001D1012341E07B6893F83D30DBB2002B89
:1021AC0006D17B68002283F83C207868FEF7A0FB00
:1021BC007B68022283F83D207B681A687B680433B5
:1021CC001946104600F08CF97B68012283F84620F2
:1021DC007B68012283F83E207B68012283F83F2034
:1021EC007B68012283F840207B68012283F8412020
:1021FC007B68012283F842207B68012283F843200C
:10220C007B68012283F844207B68012283F84520F7
:10221C007B68012283F83D20002318460837BD4611
:10222C0080BD000080B584B000AF786039603B6839
:10223C00002B09D17B6893F83E30DBB2012B14BF25
:10224C0001230023DBB222E03B68042B09D17B681D
:10225C0093F83F30DBB2012B14BF01230023DBB218
:10226C0015E03B68082B09D17B6893F84030DBB252
:10227C00012B14BF01230023DBB208E07B6893F829
:10228C004130DBB2012B14BF01230023DBB2002B46
:10229C0001D0012359E03B68002B04D17B6802225A
:1022AC0083F83E2013E03B68042B04D17B680222A8
:1022BC0083F83F200BE03B68082B04D17B6802229B
:1022CC0083F8402003E07B68022283F841207B687E
:1022DC001B6801223968184600F0EEFA7B681B680F
:1022EC001C4A934207D17B681B685A6C7B681B683D
:1022FC0042F400425A647B681B68164A934209D028
:10230C007B681B68B3F1804F04D07B681B68124A52
:10231C00934211D17B681B689B6803F00703FB6039
:10232C00FB68062B10D07B681B681A687B681B68DF
:10233C0042F001021A6007E07B681B681A687B6830
:10234C001B6842F001021A60002318461037BD4684
:10235C0080BD00BF002C01400004004080B586B059
:10236C0000AFF860B9607A600023FB75FB6893F8E6
:10237C003C30012B01D10223AEE0FB68012283F833
:10238C003C207B680C2B00F29F8001A252F823F0BA
:10239C00D1230008D5240008D5240008D524000832
:1023AC0011240008D5240008D5240008D5240008E1
:1023BC0053240008D5240008D5240008D52400088F
:1023CC0093240008FB681B68B968184600F0ECF809
:1023DC00FB681B689A69FB681B6842F008029A61EB
:1023EC00FB681B689A69FB681B6822F004029A61FF
:1023FC00FB681B689969BB681A69FB681B680A4310
:10240C009A6164E0FB681B68B968184600F032F901
:10241C00FB681B689A69FB681B6842F400629A614E
:10242C00FB681B689A69FB681B6822F480629A61DE
:10243C00FB681B689969BB681B691A02FB681B68FF
:10244C000A439A6143E0FB681B68B968184600F0C0
:10245C007BF9FB681B68DA69FB681B6842F00802B1
:10246C00DA61FB681B68DA69FB681B6822F00402FE
:10247C00DA61FB681B68D969BB681A69FB681B6861
:10248C000A43DA6123E0FB681B68B968184600F060
:10249C00C5F9FB681B68DA69FB681B6842F40062CB
:1024AC00DA61FB681B68DA69FB681B6822F48062DE
:1024BC00DA61FB681B68D969BB681B691A02FB6887
:1024CC001B680A43DA6102E00123FB7500BFFB685D
:1024DC00002283F83C20FB7D18461837BD4680BD92
:1024EC0080B485B000AF786039607B681B68FB6096
:1024FC007B682B4A934207D07B68B3F1804F03D0A3
:10250C007B68284A934208D1FB6823F07003FB6078
:10251C003B685B68FA681343FB607B68204A934214
:10252C0007D07B68B3F1804F03D07B681D4A934280
:10253C0008D1FB6823F44073FB603B68DB68FA68E6
:10254C001343FB60FB6823F080023B685B69134319
:10255C00FB607B68FA681A603B689A687B68DA6291
:10256C003B681A687B689A627B680D4A934203D178
:10257C003B681A697B681A637B6801225A617B6825
:10258C001B6903F00103002B05D07B681B6923F04A
:10259C0001027B681A6100BF1437BD4680BC7047CE
:1025AC00002C01400004004080B487B000AF78607C
:1025BC0039607B681B6A7B617B681B6A23F00102B4
:1025CC007B681A627B685B683B617B689B69FB601C
:1025DC00FB6823F07003FB60FB6823F00303FB60D4
:1025EC003B681B68FA681343FB607B6923F00203AA
:1025FC007B613B689B687A6913437B617B681C4AEF
:10260C0093420CD17B6923F008037B613B68DB6848
:10261C007A6913437B617B6923F004037B617B68DC
:10262C00134A934211D13B6923F480733B613B699C
:10263C0023F400733B613B685B693A6913433B616C
:10264C003B689B693A6913433B617B683A695A6002
:10265C007B68FA689A613B685A687B685A637B6846
:10266C007A691A6200BF1C37BD4680BC704700BF38
:10267C00002C014080B487B000AF786039607B6873
:10268C001B6A7B617B681B6A23F010027B681A62F1
:10269C007B685B683B617B689B69FB60FB6823F430
:1026AC00E043FB60FB6823F44073FB603B681B68F2
:1026BC001B02FA681343FB607B6923F020037B61E8
:1026CC003B689B681B017A6913437B617B681D4ADD
:1026DC0093420DD17B6923F080037B613B68DB68FF
:1026EC001B017A6913437B617B6923F040037B6197
:1026FC007B68144A934213D13B6923F480633B619A
:10270C003B6923F400633B613B685B699B003A695E
:10271C0013433B613B689B699B003A6913433B61E4
:10272C007B683A695A607B68FA689A613B685A68B8
:10273C007B689A637B687A691A6200BF1C37BD4656
:10274C0080BC7047002C014080B487B000AF78602B
:10275C0039607B681B6A7B617B681B6A23F480721F
:10276C007B681A627B685B683B617B68DB69FB603A
:10277C00FB6823F07003FB60FB6823F00303FB6032
:10278C003B681B68FA681343FB607B6923F4007396
:10279C007B613B689B681B027A6913437B617B6896
:1027AC001D4A93420DD17B6923F400637B613B6826
:1027BC00DB681B027A6913437B617B6923F48063BA
:1027CC007B617B68144A934213D13B6923F4805399
:1027DC003B613B6923F400533B613B685B691B0124
:1027EC003A6913433B613B689B691B013A6913438C
:1027FC003B617B683A695A607B68FA68DA613B68CE
:10280C005A687B68DA637B687A691A6200BF1C3786
:10281C00BD4680BC704700BF002C014080B487B01F
:10282C0000AF786039607B681B6A3B617B681B6A10
:10283C0023F480527B681A627B685B687B617B68DF
:10284C00DB69FB60FB6823F4E043FB60FB6823F46B
:10285C004073FB603B681B681B02FA681343FB6008
:10286C003B6923F400533B613B689B681B033A694B
:10287C0013433B617B680F4A934209D17B6923F474
:10288C0080437B613B685B699B017A6913437B6185
:10289C007B687A695A607B68FA68DA613B685A68C7
:1028AC007B681A647B683A691A6200BF1C37BD46A4
:1028BC0080BC7047002C014080B487B000AFF8603A
:1028CC00B9607A60BB6803F01F03012202FA03F3BC
:1028DC007B61FB681A6A7B69DB431A40FB681A62EE
:1028EC00FB681A6ABB6803F01F03796801FA03F3EB
:1028FC001A43FB681A6200BF1C37BD4680BC704788
:10290C0080B485B000AF786039607B6893F83C3058
:10291C00012B01D1022341E07B68012283F83C208A
:10292C007B68022283F83D207B681B685B68FB6038
:10293C007B681B689B68BB60FB6823F07003FB60C3
:10294C003B681B68FA681343FB607B681B68FA687A
:10295C005A607B681B68144A934209D07B681B68D9
:10296C00B3F1804F04D07B681B68104A93420CD1A2
:10297C00BB6823F08003BB603B685B68BA68134399
:10298C00BB607B681B68BA689A607B68012283F81D
:10299C003D207B68002283F83C2000231846143726
:1029AC00BD4680BC704700BF002C014000040040B5
:1029BC0080B582B000AF78607B68002B01D1012319
:1029CC0042E07B6893F84130DBB2002B06D17B6888
:1029DC00002283F840207868FEF798F87B68242260
:1029EC0083F841207B681B68DA687B681B6822F4DB
:1029FC000052DA60786800F02BF87B681B681A6963
:102A0C007B681B6822F490421A617B681B685A69C8
:102A1C007B681B6822F02A025A617B681B68DA68A3
:102A2C007B681B6842F40052DA607B6800225A64AF
:102A3C007B68202283F841207B68202283F8422087
:102A4C007B6800225A63002318460837BD4680BDB8
:102A5C0080B584B000AF78607B681B681B6923F479
:102A6C0040517B68DA687B681B680A431A617B6893
:102A7C009A687B681B691A437B685B691343BB606C
:102A8C007B681B68DB6823F4B05323F00C037A6873
:102A9C001268B9680B43D3607B681B685B6923F4CD
:102AAC0040717B689A697B681B680A435A617B6832
:102ABC001B682C4A934203D1FFF77CFAF86002E0C2
:102ACC00FFF764FAF860FA6813469B0013449A0007
:102ADC001A447B685B689B00B2FBF3F3224AA2FBAF
:102AEC0003235B091901FA6813469B0013449A00EF
:102AFC001A447B685B689B00B2FBF3F21A4BA3FB96
:102B0C0002035B09642000FB03F3D31A1B0132336D
:102B1C00154AA2FB03235B0903F0F0031944FA687E
:102B2C0013469B0013449A001A447B685B689B0015
:102B3C00B2FBF3F20C4BA3FB02035B09642000FB1A
:102B4C0003F3D31A1B013233074AA2FB03235B099D
:102B5C0003F00F027B681B680A449A6000BF1037B1
:102B6C00BD4680BD003801401F85EB5180B582B059
:102B7C0000AF78607B68002B01D1012333E07B68C8
:102B8C0093F83D30DBB2002B06D17B68002283F832
:102B9C003C207868FDF76EFF7B68022283F83D20AD
:102BAC00786800F025F87B681B681A697B681B68DD
:102BBC0022F480421A617B681B685A697B681B6827
:102BCC0022F02A025A617B681B68DA687B681B68F2
:102BDC0042F40052DA607B6800221A647B6801229E
:102BEC0083F83D20002318460837BD4680BD000001
:102BFC0080B584B000AF78600023FB607B681B68F5
:102C0C00DA687B681B6822F00C02DA607B681B6850
:102C1C001B69FB60FB6823F47C53FB607B689A693F
:102C2C007B68DB691A437B681B6A1A437B68DB6829
:102C3C001A43FB68134343F40063FB607B681B6817
:102C4C00FA681A617B681B68DB68FB60FB6823F41D
:102C5C00B05323F00C03FB607B689A687B681B699C
:102C6C001A437B685B691343FA681343FB607B6808
:102C7C001B68FA68DA607B681B685A697B681B689A
:102C8C0022F440725A617B681B68534A93424FD1BD
:102C9C00FFF790F9B860BA6813469B0013449A008A
:102CAC001A447B685B689B00B2FBF3F34B4AA2FBB4
:102CBC0003235B091901BA6813469B0013449A005D
:102CCC001A447B685B689B00B2FBF3F2434BA3FB9B
:102CDC0002035B09642000FB03F3D31A1B0132339C
:102CEC003E4AA2FB03235B095B0003F4F073194417
:102CFC00BA6813469B0013449A001A447B685B68BD
:102D0C009B00B2FBF3F2354BA3FB02035B0964207F
:102D1C0000FB03F3D31A1B013233304AA2FB03230B
:102D2C005B0903F00F027B681B680A449A604EE053
:102D3C00FFF72CF9B860BA6813469B0013449A004D
:102D4C001A447B685B689B00B2FBF3F3234AA2FB3B
:102D5C0003235B091901BA6813469B0013449A00BC
:102D6C001A447B685B689B00B2FBF3F21B4BA3FB22
:102D7C0002035B09642000FB03F3D31A1B013233FB
:102D8C00164AA2FB03235B095B0003F4F07319449E
:102D9C00BA6813469B0013449A001A447B685B681C
:102DAC009B00B2FBF3F20D4BA3FB02035B09642007
:102DBC0000FB03F3D31A1B013233084AA2FB032393
:102DCC005B0903F00F027B681B680A449A6000BF22
:102DDC001037BD4680BD00BF003801401F85EB5148
:102DEC0080B485B000AFF860384680E80E00002350
:102DFC0018461437BD4680BC704780B485B000AF10
:102E0C0078604FF43F43FB607B68B3F840309AB274
:102E1C00FB689BB2DB439BB213409AB27B68A3F86E
:102E2C004020002318461437BD4680BC704780B440
:102E3C0083B000AF78600B46FB70002318460C374C
:102E4C00BD4680BC704780B485B000AFF860384692
:102E5C0080E80E00FB680122A3F84020FB680022EA
:102E6C00A3F84020FB680022A3F84420FB68002252
:102E7C00A3F85020002318461437BD4680BC704779
:102E8C0080B483B000AF7860002318460C37BD4681
:102E9C0080BC7047002310B50446C0E90033C0E97C
:102EAC000433836081814366C281836119460822A1
:102EBC005C3000F03FFA0D4B246263620C4BA36252
:102ECC000C4BE3620C4B23630C4B9C4206D003F17E
:102EDC006802944202D0D0339C4205D104F15800D0
:102EEC00BDE8104000F09EBA10BD00BF9131000843
:102EFC00B3310008EB3100080F320008D404002075
:102F0C00024A0349034800F069B800BF0C000020D6
:102F1C00253700081800002041680C4B10B5994269
:102F2C00044601D000F0F8FBA168094B994202D08D
:102F3C00204600F0F1FBE168064B994204D0204694
:102F4C00BDE8104000F0E8BB10BD00BFD404002069
:102F5C003C050020A405002010B50B4B0B4C0C4A73
:102F6C0020461A6004210022FFF794FF04F1680048
:102F7C0001220921FFF78EFF04F1D0000222BDE8E7
:102F8C0010401221FFF786BF0C060020D40400204D
:102F9C000D2F0008014800F046BA00BF15060020AE
:102FAC00014800F041BA00BF1506002010B50446D8
:102FBC00FFF7F0FF236A1BB1BDE81040FFF7F0BF2D
:102FCC00044B2362044B1B68002BF5D1FFF7C4FFA5
:102FDC00F2E700BF252F00080C0600202DE9F8436E
:102FEC000746884614460026D4E90195B9F1010933
:102FFC0005D52468002CF7D13046BDE8F883AB89A1
:10300C00012B07D9B5F90E30013303D029463846C8
:10301C00C04706436835E9E72DE9F047089C8A4626
:10302C009046064602FB03F918B1036A0BB9FFF789
:10303C00BDFF636EDD0705D4A389980502D4A06D8E
:10304C0000F0F1F9A389190716D52369A3B100255E
:10305C004D451FD0A7681AF80510013F002FA76037
:10306C0004DAA3699F420FDB0A290DD023685A1C8E
:10307C00226019700135EBE72146304600F002F969
:10308C000028E4D0002505E02246304600F0BDF8CB
:10309C000130EFD1636EDA0705D4A3899B0502D406
:1030AC00A06D00F0C1F9B5FBF8F0BDE8F0870000A9
:1030BC0007B5009313460A46014603480068FFF71C
:1030CC00ABFF03B05DF804FB64000020036A70B52D
:1030DC0005460E4684680BB9FFF768FF636EDB0785
:1030EC0005D4A389980502D4A06D00F09CF9A3899E
:1030FC00190713D523698BB1013EA36816F8011F7C
:10310C00013BA360E9B9002B2EDA22460A2128469E
:10311C0000F07BF8013007D00A2507E0214628464D
:10312C0000F0B0F80028E7D04FF0FF35636EDA07F7
:10313C0005D4A3899B0502D4A06D00F075F928462F
:10314C0070BD002B04DAA2699A4206DC0A2904D06D
:10315C0023685A1C22601970CFE72246284600F0DB
:10316C0054F80130C9D1DFE70A2523685A1C2260C4
:10317C001D70DBE7024B01461868FFF7A7BF00BFC5
:10318C006400002010B50C46B1F90E1000F0FCF8EC
:10319C000028ABBF636DA3891B1823F48053ACBF0D
:1031AC006365A38110BD2DE9F0411F468B8905464F
:1031BC00DB050C46164605D502230022B1F90E108C
:1031CC0000F0D0F8A389324623F48053A38128461B
:1031DC003B46B4F90E10BDE8F04100F0E7B810B56D
:1031EC000C46B1F90E1000F0BDF8431CA38915BFB5
:1031FC00606523F4805343F48053A38118BFA381EB
:10320C0010BDB1F90E1000F09DB8F8B50E4614467D
:10321C00054618B1036A0BB9FFF7C8FEA369A36092
:10322C00A3891A0725D523691BB323682269F6B233
:10323C00981A63693746834204DC2146284600F01D
:10324C006BFAE0B9A368013BA36023685A1C2260A7
:10325C001E706269431C9A4204D0A389DB0706D511
:10326C000A2E04D12146284600F056FA38B93846C1
:10327C00F8BD2146284600F005F80028D5D04FF0BF
:10328C00FF37F4E738B52A4B054618680C4618B1D9
:10329C00036A0BB9FFF78AFEA389B4F90C2018074F
:1032AC0022D4D90607D409232B6042F040034FF0F7
:1032BC00FF30A38134E0580712D5616B41B104F1A2
:1032CC004403994202D0284600F0B0F8002363630F
:1032DC00A38923F02403A381002363602369236063
:1032EC00A38943F00803A38123694BB9A38903F491
:1032FC002073B3F5007F03D02146284600F059FA1D
:10330C00A089B4F90C2010F001030AD00023A360AB
:10331C0063695B42A361236943B910F08000C4D197
:10332C0038BD810758BF6369A360F4E70020F7E755
:10333C006400002003460244934200D1704703F816
:10334C00011BF9E738B50023054D044608462B60F0
:10335C00FDF788FC431C02D12B6803B1236038BDF8
:10336C001006002038B50446084611460022054DCB
:10337C002A601A46FDF79AFC431C02D12B6803B154
:10338C00236038BD1006002038B5044608461146A7
:10339C000022054D2A601A46FDF747FC431C02D15A
:1033AC002B6803B1236038BD1006002038B50446E5
:1033BC00084611460022054D2A601A46FCF7E6FE27
:1033CC00431C02D12B6803B1236038BD10060020CA
:1033DC00014B1868704700BF6400002070B50026D0
:1033EC000C4D0D4C641BA410A64209D100F050FAF0
:1033FC0000260A4D0A4C641BA410A64205D170BDD0
:10340C0055F8043B98470136EEE755F8043B9847CE
:10341C000136F2E7F0380008F0380008F038000800
:10342C00F4380008704770477047000038B50546FF
:10343C00002940D051F8043C0C1F002BB8BFE418F5
:10344C0000F0DCF81C4A136833B96360146028463A
:10345C00BDE8384000F0D8B8A34208D9206821183C
:10346C008B4201BF19685B6809182160EDE71A46A9
:10347C005B680BB1A342FAD911685018A0420BD16A
:10348C0020680144501883421160E0D118685B68D1
:10349C00084410605360DAE702D90C232B60D6E79E
:1034AC00206821188B4201BF19685B6809182160DC
:1034BC0063605460CBE738BD1806002070B50E4E23
:1034CC000C463168054611B900F0D2F9306021463E
:1034DC00284600F0CDF9431C0AD0C41C24F0030488
:1034EC00A04207D0211A284600F0C2F9013001D1C0
:1034FC004FF0FF34204670BD1C0600202DE9F84328
:10350C00CD1C25F0030508350C2D38BF0C25002DDE
:10351C00074601DBA94205D90C2300263B60304647
:10352C00BDE8F883DFF8D08000F068F8D8F80030F8
:10353C001C465CBB29463846FFF7C0FF431C0446BB
:10354C0055D1D8F800402646002E45D1002C48D045
:10355C0023683146384604EB030900F089F98145AC
:10356C003FD1216838466D1A2946FFF7A7FF013075
:10357C0037D023682B442360D8F80030002B38D088
:10358C005A68A2422BD100225A600FE02268521BCB
:10359C001FD40B2A17D96119A342256018BF596093
:1035AC00636808BFC8F8001062514B60384604F1DC
:1035BC000B0600F029F826F00706231DF21AAED0F0
:1035CC009B1BA350ABE7A3426268DDD1C8F8002077
:1035DC00ECE723466468ACE734467668B4E71346F8
:1035EC00CCE70C2338463B6000F00EF897E72560DB
:1035FC00DCE75B60FFDE00BF180600200148FFF728
:10360C0012BF00BF140600200148FFF70DBF00BF1A
:10361C00140600208A89F8B5054610070C4657D4C5
:10362C004B68002B04DC0B6C002B01DC0020F8BD7C
:10363C00E66A002EFAD0002312F480522F68216A19
:10364C002B6032D0606DA3895A0705D56368C01A08
:10365C00636B0BB1236CC01A00230246E66A284642
:10366C00216AB047431CA38906D129681D292BD890
:10367C00284A0A41D60727D4002262602269D9045D
:10368C00226004D5421C01D12B6803B96065616BC3
:10369C002F600029CAD004F14403994202D0284675
:1036AC00FFF7C4FE00206063C1E701232846B04742
:1036BC00411CC8D12B68002BC5D01D2B01D0162B5B
:1036CC0001D12F60B2E7A38943F04003A381AEE799
:1036DC000F69002FAAD0930718BF00230E6808BFEC
:1036EC004B69F61B0F608B60002E9FDD33463A460C
:1036FC002846216AD4F828C0E047002806DCA389B4
:10370C004FF0FF3043F04003A38190E70744361A93
:10371C00EAE700BFFEFFBFDF38B50B6905460C4674
:10372C0013B90025284638BD18B1036A0BB9FFF749
:10373C003DFCB4F90C30002BF3D0626ED00704D4EE
:10374C00990502D4A06DFFF76EFE28462146FFF7BF
:10375C0061FF636E0546DA07E4D4A3899B05E1D4C7
:10376C00A06DFFF761FEDDE770B50C46B1F90E10E8
:10377C00154600291E4696B00CDAA389002113F0D9
:10378C00800F0CBF4FF480634023002031602B600E
:10379C0016B070BD6A4600F049F80028EDDB0199BF
:1037AC0001F47041A1F50053594259414FF4806323
:1037BC00EBE78B8973B59D0706460C4607D504F1DC
:1037CC004703236023610123636102B070BD6A4625
:1037DC0001ABFFF7C9FF009905463046FFF78EFE97
:1037EC0048B9B4F90C309A05EFD423F0030343F035
:1037FC000203A381E3E7A389206043F08003A38144
:10380C00009B20616361019B5BB13046B4F90E10E3
:10381C0000F01EF828B1A38923F0030343F0010341
:10382C00A381A3891D43A581CFE7000038B50023F0
:10383C00064D0446084611462B60FDF71EFA431C44
:10384C0002D12B6803B1236038BD00BF10060020E5
:10385C0038B50023054D044608462B60FDF71CFACD
:10386C00431C02D12B6803B1236038BD1006002025
:10387C0038B50023054D044608462B60FDF722FAA7
:10388C00431C02D12B6803B1236038BD1006002005
:10389C00F8B500BFF8BC08BC9E467047F8B500BF31
:0838AC00F8BC08BC9E46704701
:1038B400546573740A000000546573743200000088
:1038C40000000000000000000102030406070809CC
:1038D40000000000010203040203040506070809AE
:0C38E4000A0B0C0D0E0F1010010200006A
:0438F000310100089A
:0438F4000D010008BA
:1038F80000127A0010000000010000000000000023
:1039080003000000D404002000000000D4040020BC
:103918003C050020A4050020000000000000000075
:10392800000000000000000000000000000000008F
:10393800000000000000000000000000000000007F
:10394800000000000000000000000000000000006F
:0839580000000000180000202F
:0400000508000D4999
:00000001FF
